:100000002C0B00207D2E0000E92E0000E92E0000C0
:10001000E92E0000E92E0000E92E0000000000009B
:10002000000000000000000000000000E92E0000B9
:10003000E92E000000000000E92E0000351A000043
:10004000E92E0000E92E0000E92E0000E92E000054
:10005000E92E0000E92E0000E92E0000E92E000044
:10006000E92E0000E92E0000E92E0000E92E000034
:10007000E92E0000E92E0000E92E0000E92E000024
:10008000E92E0000E92E0000E92E0000C50E000058
:10009000E92E0000E92E0000E92E0000E92E000004
:1000A000E92E0000E92E0000E92E0000E92E0000F4
:1000B000E92E0000E92E0000E92E0000E92E0000E4
:1000C000E92E0000E92E0000E92E0000810E00005C
:1000D000E92E0000E92E0000E92E0000E92E0000C4
:1000E000E92E0000E92E0000E92E0000E92E0000B4
:1000F000E92E0000E92E0000E92E0000E92E0000A4
:1001000080B582B000AF78604FF00100C1F21000FE
:1001100001F0B0FC02F058FA4FF00000C4F2030006
:100120004FF0010100F058FA01F01CFE03467A6816
:1001300002FB03F34FF00000C4F203004FF0FF0195
:100140001A4600F075FA07F10807BD4680BD00BFEA
:1001500080B500AF4FF0230002F03EFA4FF00000F0
:10016000C4F203004FF0010100F082FA4FF00000EA
:10017000C4F203004FF0FF0100F014FA80BD00BF8D
:1001800080B582B000AF78604FF00800C1F2100077
:1001900001F070FC4FF44050C4F203004FF0010135
:1001A00000F01AFA01F0DEFD03467A6802FB03F361
:1001B0004FF44050C4F203004FF0FF011A4600F024
:1001C00037FA07F10807BD4680BD00BF80B500AF14
:1001D0004FF0330002F000FA4FF44050C4F2030035
:1001E0004FF0010100F044FA4FF44050C4F2030014
:1001F0004FF0FF0100F0D6F980BD00BF80B584B09C
:1002000000AF42F6D223C0F28E03BB6042F6100369
:10021000C0F280037B604FF46043C4F20F0342F6E8
:100220001002C0F280721A674FF46043C4F20F03E9
:1002300043F6D122C0F28E721A664FF46043C4F2C4
:100240000F0342F6D222C0F28E021A664FF46043C8
:10025000C4F20F0342F61002C0F280021A674FF098
:100260000003FB6003E0FB6803F10103FB60FA6835
:1002700040F2E7339A42F6D94FF46043C4F20F03D9
:1002800042F6D222C0F28E021A664FF46043C4F2E4
:100290000F0342F61002C0F280021A674FF000030B
:1002A000FB6003E0FB6803F10103FB60FA6840F2C6
:1002B000E7339A42F6D94FF46043C4F20F0342F693
:1002C000D222C0F28E021A664FF46043C4F20F03CA
:1002D00042F6D222C0F28E021A664FF46043C4F294
:1002E0000F0342F61002C0F280021A674FF00003BB
:1002F000FB6003E0FB6803F10103FB60FA6842F274
:100300000F739A42F6D94FF46043C4F20F031B6E89
:10031000BB604FF46043C4F20F031B6F7B607B68CC
:10032000002B56DA7B6803F40063002B14D0BB6803
:100330004FEA931303F00F027B684FEA131303F0A5
:1003400007031046194600F075F8024640F2000314
:10035000C2F200031A6008E040F20003C2F2000398
:100360004FF44242C0F6EB321A60BB6803F48003DC
:10037000002B5AD07B6803F40063002B13D040F2AB
:100380000003C2F200031A687B684FEAD35303F0FC
:100390003F0303F10103B2FBF3F240F20003C2F2A8
:1003A00000031A6041E040F20003C2F200031A6841
:1003B0007B684FEAD35303F03F0303F10103B2FB21
:1003C000F3F34FEA530240F20003C2F200031A6053
:1003D0002BE0BB684FEA931303F00F02BB684FEAB0
:1003E000131303F003031046194600F023F80246E6
:1003F00040F20003C2F200031A60BB6803F48003FA
:10040000002B12D040F20003C2F200031A68BB684E
:100410004FEAD35303F00F0303F10103B2FBF3F2EE
:1004200040F20003C2F200031A6007F11007BD4654
:1004300080BD00BF80B485B000AF786039604FF4F4
:10044000D853C0F2B703FB603B68032B00F29880DF
:1004500001A252F823F000BF690400005F0500000C
:100460006B050000770500007B680F2B00F287808A
:1004700001A252F823F000BFB9040000C504000037
:10048000CD040000D9040000E1040000ED040000E8
:10049000F504000001050000090500001105000039
:1004A0001D0500002905000035050000410500007C
:1004B000490500005505000044F24023C0F20F0337
:1004C000FB604BE04FF4E113FB6047E048F28043F0
:1004D000C0F21E03FB6041E04FF41613FB603DE0E9
:1004E00049F69963C0F23603FB6037E04FF46113BD
:1004F000FB6033E04FF41063C0F23D03FB602DE07E
:100500004FF47A13FB6029E04FF49603FB6025E07B
:1005100044F64033C0F24C03FB601FE04FF400533D
:10052000C0F24E03FB6019E048F68053C0F25B0353
:10053000FB6013E04FF44043C0F25D03FB600DE04D
:100540004FF4E103FB6009E04FF49053C0F27A03EB
:10055000FB6003E04FF4FA03FB6000BF10E04FF4D0
:10056000D853C0F2B703FB600AE04CF2C063C0F29C
:100570002D03FB6004E047F23053FB6000E000BF56
:10058000FB68184607F11407BD4680BC704700BFE2
:1005900080B500AF4FF46E50C0F2807001F09AFA4F
:1005A00080BD00BF80B483B000AF786039607B68E5
:1005B00003F10C031A467B6803F10C0319683868D1
:1005C00040F2011300EA030341EA0303136007F159
:1005D0000C07BD4680BC704780B483B000AF786024
:1005E00039607B6803F10C031A467B6803F10C0346
:1005F0001B6823F4807323F0010313607B683A685F
:100600004FEA12621A607B6803F104033A6802F051
:10061000FF021A607B6803F108033A684FEA12226E
:1006200002F0FF021A6007F10C07BD4680BC70475C
:1006300080B485B000AFF860B9607A60BB6803F041
:10064000FF03002B04D0FB6803F128037A681A60CB
:10065000BB6803F47F43002B04D0FB6803F12C0339
:100660007A681A6007F11407BD4680BC704700BF66
:1006700080B483B000AF786039607B6803F1180301
:100680007A6802F1180211683A6841EA02021A60B7
:1006900007F10C07BD4680BC704700BF80B483B033
:1006A00000AF786039607B6803F124033A681A6010
:1006B00007F10C07BD4680BC704700BF80B586B00F
:1006C00000AFF860B9607A603B60F86800F06AF8E3
:1006D0007B684FEA0312BB689A420ED9FB6803F1AC
:1006E0003003FA6802F13002126842F020021A6008
:1006F0007B684FEA53037B6009E0FB6803F130033A
:10070000FA6802F13002126822F020021A60BB6817
:100710004FEAC3027B68B2FBF3F303F101034FEA34
:1007200053037B61FB6803F124037A694FEA921259
:100730001A60FB6803F128037A6902F03F021A602D
:10074000FB6803F12C033A681A60FB6803F1180395
:100750004FF000021A60F86800F004F807F118077B
:10076000BD4680BD80B483B000AF78607B6803F184
:100770002C037A6802F12C02126842F010021A600F
:100780007B6803F130031A467B6803F130031B6872
:1007900043F4407343F00103136007F10C07BD46B7
:1007A00080BC704780B483B000AF786000BF7B68C6
:1007B00003F118031B6803F00803002BF7D17B68D3
:1007C00003F12C037A6802F12C02126822F0100265
:1007D0001A607B6803F130031A467B6803F130032B
:1007E0001B6823F4407323F00103136007F10C0727
:1007F000BD4680BC704700BF80B483B000AF786056
:100800000B46FB707B6803F118031B6803F02003A1
:10081000002B05D17B68FA781A604FF0010301E0E4
:100820004FF00003184607F10C07BD4680BC704727
:1008300080B582B000AF4FF000037B6017E07B68AB
:1008400003F1010240F20063C2F2000302F102026E
:1008500053F8221040F20063C2F200037A6802F1FA
:10086000020243F822107B6803F101037B607B687E
:10087000022BE4DD40F20063C2F200036FF00402D9
:100880005A6101F0A5FC07F10807BD4680BD00BF15
:1008900080B400AF40F21103C2F200031B78A3F151
:1008A00007032C2B00F2D68001A252F823F000BFE0
:1008B000A1090000550A0000550A0000550A000071
:1008C000190A0000550A0000DD0900006509000052
:1008D000550A0000550A0000550A0000550A00009C
:1008E000550A0000550A0000550A0000550A00008C
:1008F000550A0000550A0000550A0000550A00007C
:10090000550A0000550A0000550A0000550A00006B
:10091000550A0000550A0000550A0000550A00005B
:10092000550A0000550A0000550A0000550A00004B
:10093000550A0000550A0000550A0000550A00003B
:10094000550A0000550A0000550A0000550A00002B
:10095000550A000083090000BF090000FB090000E0
:10096000370A000040F20063C2F200034FF00002B9
:100970009A6040F2FC53C2F200034FF001021A7079
:1009800076E040F20063C2F200034FF000029A608A
:1009900040F2FC53C2F200034FF001021A7067E00C
:1009A00040F20063C2F200034FF001029A6040F28D
:1009B000FC53C2F200034FF001021A7058E040F2FB
:1009C0000063C2F200034FF001029A6040F2FC5350
:1009D000C2F200034FF001021A7049E040F20063D6
:1009E000C2F200034FF002029A6040F2FC53C2F2DE
:1009F00000034FF001021A703AE040F20063C2F2C5
:100A000000034FF002029A6040F2FC53C2F200036E
:100A10004FF001021A702BE040F20063C2F20003B3
:100A20004FF003029A6040F2FC53C2F200034FF011
:100A300001021A701CE040F20063C2F200034FF0A2
:100A400003029A6040F2FC53C2F200034FF001022D
:100A50001A700DE040F21A63C2F200031B78002BFB
:100A600006D140F2FC53C2F200034FF000021A70AC
:100A7000BD4680BC704700BF80B400AF40F2110398
:100A8000C2F200031B78A3F10703072B32D801A29F
:100A900052F823F0C50A0000F50A0000F50A00002C
:100AA000F50A0000E50A0000F50A0000D50A00007A
:100AB000B50A000040F29853C2F200034FF0010261
:100AC0001A6018E040F29853C2F200034FF001029E
:100AD0005A6010E040F29853C2F200034FF0010256
:100AE0009A6008E040F29853C2F200034FF001020E
:100AF000DA6000E000BFBD4680BC704780B586B0BC
:100B000000AF4FF48040C4F202004FF00F0101F03B
:100B1000C9FC0346FB7540F21103C2F20003FA7DE3
:100B20001A7040F21103C2F200031B780F2B01D0A0
:100B3000FFF7A2FF07F11807BD4680BD80B588B05A
:100B400000AF4FF00003BB614FF00003FB754FF0A7
:100B50000003FB617FE040F29853C2F20003FA69A0
:100B600053F82230012B72D16BE040F20063C2F2E5
:100B70000003BA6902F1020253F8223013F1050FA3
:100B80001BD1BB69002B18D140F20063C2F20003F5
:100B9000BA6902F10202F96943F822104FF0010329
:100BA000FB7540F29853C2F20003FA694FF000015E
:100BB00043F8221001F0FEFA3FE040F20063C2F277
:100BC0000003BA6902F1020253F8223013F1050F53
:100BD00033D1BB69002B30DDBB6903F1FF3240F23A
:100BE0000063C2F2000302F1020253F82220FB6903
:100BF0009A4216D040F20063C2F20003BA6902F1D1
:100C00000202F96943F8221040F29853C2F200033D
:100C1000FA694FF0000143F8221001F0CBFA01F01D
:100C200099FA4FF00103FB7540F29853C2F20003AA
:100C3000FA694FF0000143F82210BB6903F1010388
:100C4000BB61BB69032B02DCFB7D002B8DD0FB69F4
:100C500003F10103FB61FB69032B7FF77CAF4FF0CE
:100C6000030002F099FB4FF00003FB612FE040F21C
:100C70000063C2F20003FA6902F1020253F8223063
:100C800013F1050F1FD040F20063C2F20003FA69AE
:100C900002F1020253F8223007F10402104649F231
:100CA0008C61C0F200011A4602F0D8FBFB694FEAE2
:100CB000430303F1010207F1040310464FF003015F
:100CC0001A4602F0F7FAFB6903F10103FB61FB69C5
:100CD000032BCCDD02F01AFB07F12007BD4680BDD7
:100CE00080B500AFFFF70AFFFFF728FF80BD00BF08
:100CF00080B483B000AF4FF000037B6021E040F28E
:100D0000A853C2F200037A6853F82230012B0DD1A8
:100D100040F20063C2F200037A689A6040F2FC532A
:100D2000C2F200034FF001021A7006E040F2FC53D9
:100D3000C2F200034FF000021A707B6803F1010356
:100D40007B607B68032BDADD07F10C07BD4680BCB6
:100D5000704700BF80B500AF40F20063C2F20003ED
:100D60001B68032B00F2888001A252F823F000BF19
:100D7000810D0000BF0D0000FD0D00003B0E0000C6
:100D80004FF003004FF0060149F29062C0F20002FA
:100D900002F090FA49F29860C0F200004FF00501AD
:100DA0004FF0000202F04CF949F29860C0F20000E6
:100DB0004FF005014FF0010202F042F95DE04FF003
:100DC00003004FF0060149F2A062C0F2000202F0F7
:100DD00071FA49F2A860C0F200004FF005014FF02F
:100DE000000202F02DF949F2A860C0F200004FF0B5
:100DF00005014FF0010202F023F93EE04FF003003D
:100E00004FF0060149F2B062C0F2000202F052FA5D
:100E100049F2B860C0F200004FF005014FF0000247
:100E200002F00EF949F2B860C0F200004FF005017F
:100E30004FF0010202F004F91FE04FF003004FF001
:100E4000060149F2C062C0F2000202F033FA49F230
:100E5000C860C0F200004FF005014FF0000202F040
:100E6000EFF849F2C860C0F200004FF005014FF002
:100E7000010202F0E5F800E000BF02F047FA80BD91
:100E800080B500AF4FF44050C4F203004FF00101B1
:100E9000FFF704FC4FF0330001F00AFC40F2FE5370
:100EA000C2F200034FF001021A7040F21863C2F25E
:100EB00000034FF000021A704FF0330001F08CFB7A
:100EC00080BD00BF80B500AF4FF00000C4F203004A
:100ED0004FF00101FFF7E2FB4FF0230001F0E8FBC8
:100EE00040F20063C2F200039A6840F20063C2F26B
:100EF00000031B689A420CDD40F20063C2F200035B
:100F00001B6803F1010240F20063C2F200031A60A1
:100F10000BE040F20063C2F200031B6803F1FF32F2
:100F200040F20063C2F200031A6040F21863C2F29A
:100F300000034FF000021A704FF0230001F04CFB49
:100F400080BD00BF80B500AF02F076F94FF002001F
:100F50004FF0000149F2D062C0F2000202F0AAF99B
:100F60004FF002004FF0010149F2E462C0F20002CA
:100F700002F0A0F902F0CAF980BD00BF80B400AF52
:100F800040F20063C2F200034FF000021A6040F228
:100F90000063C2F200034FF001021A7140F20063D5
:100FA000C2F200036FF004029A6040F20063C2F2E2
:100FB00000036FF00402DA6040F20063C2F2000343
:100FC0006FF004021A6140F20063C2F200036FF096
:100FD00004025A61BD4680BC704700BF80B500AFB7
:100FE000FFF7D6FA01F080F801F0EEFE01F0AEFF57
:100FF0004FF00300FFF784F84FF00600FFF7C0F84A
:10100000FFF7A0FFFFF7BAFF49F2F860C0F2000057
:101010004FF008014FF0000202F012F849F2F860B8
:10102000C0F200004FF008014FF0010202F008F892
:1010300080BD00BF80B500AFFFF75AFE40F21A63D3
:10104000C2F200031B78002B40F0BF804FF0090074
:1010500002F0A2F94FF003004FF0090149F20072CB
:10106000C0F2000202F026F94FF0090002F076F912
:1010700040F21A63C2F200034FF001021A7049F203
:101080000C70C0F200004FF00C014FF0000201F0B4
:10109000D7FF49F20C70C0F200004FF00C014FF086
:1010A000010201F0CDFF40F20063C2F200031B68B1
:1010B000032B00F2878001A252F823F0CD1000002C
:1010C0000B11000049110000871100004FF00300D0
:1010D0004FF0060149F29062C0F2000202F0EAF815
:1010E00049F29860C0F200004FF005014FF0000295
:1010F00001F0A6FF49F29860C0F200004FF0050130
:101100004FF0010201F09CFF5DE04FF003004FF053
:10111000060149F2A062C0F2000202F0CBF849F2E7
:10112000A860C0F200004FF005014FF0000201F08E
:1011300087FF49F2A860C0F200004FF005014FF0B0
:10114000010201F07DFF3EE04FF003004FF0060189
:1011500049F2B062C0F2000202F0ACF849F2B860A5
:10116000C0F200004FF005014FF0000201F068FFEF
:1011700049F2B860C0F200004FF005014FF00102E3
:1011800001F05EFF1FE04FF003004FF0060149F24F
:10119000C062C0F2000202F08DF849F2C860C0F2ED
:1011A00000004FF005014FF0000201F049FF49F245
:1011B000C860C0F200004FF005014FF0010201F0DD
:1011C0003FFF00E000BF02F0A1F880BD80B500AF96
:1011D000FFF75EFB40F20063C2F200039B6813F16D
:1011E000050F0AD040F2FC53C2F200034FF0010297
:1011F0001A7000F0C7FF00F0DDFF40F20063C2F29A
:1012000000039A6840F20063C2F200031B689A422E
:1012100023DD40F2FC53C2F200031B78002B4BD0BD
:1012200040F2FC53C2F200034FF000021A7040F289
:101230001863C2F200034FF000021A7040F2965396
:10124000C2F200034FF000021A7040F21003C2F223
:1012500000034FF002021A702EE040F20063C2F267
:1012600000039A6840F20063C2F200031B689A42CE
:1012700022DA40F2FC53C2F200031B78002B1BD091
:1012800040F2FC53C2F200034FF000021A7040F229
:101290001863C2F200034FF000021A7040F2965336
:1012A000C2F200034FF000021A7040F21003C2F2C3
:1012B00000034FF003021A7080BD00BF80B500AF7D
:1012C00040F21C63C2F200034FF000021A7040F2B9
:1012D0009653C2F200031B78002B2CD140F2965398
:1012E000C2F200034FF001021A704FF0090002F041
:1012F00053F84FF003004FF0090149F21872C0F2A1
:10130000000201F0D7FF4FF0090002F027F849F280
:101310001C70C0F200004FF00B014FF0000201F012
:101320008FFE49F21C70C0F200004FF00B014FF02D
:10133000010201F085FE40F21863C2F200031B783F
:10134000002B40F09D8040F20063C2F200031B6856
:10135000032B00F28D8001A252F823F06D130000E0
:10136000AF130000F113000033140000FEF7F0FE8D
:101370004FF003004FF0060149F29062C0F2000204
:1013800001F098FF49F22870C0F200004FF005010B
:101390004FF0000201F054FE49F22870C0F2000044
:1013A0004FF005014FF0010201F04AFE61E0FEF747
:1013B000CFFE4FF003004FF0060149F2A062C0F2E9
:1013C000000201F077FF49F2A860C0F200004FF080
:1013D00005014FF0000201F033FE49F2A860C0F2AF
:1013E00000004FF005014FF0010201F029FE40E03E
:1013F000FEF7AEFE4FF003004FF0060149F2B06277
:10140000C0F2000201F056FF49F2B860C0F20000DD
:101410004FF005014FF0000201F012FE49F2B860F2
:10142000C0F200004FF005014FF0010201F008FE8C
:101430001FE04FF003004FF0060149F2C062C0F216
:10144000000201F037FF49F2C860C0F200004FF01F
:1014500005014FF0000201F0F3FD49F2C860C0F24F
:1014600000004FF005014FF0010201F0E9FD00E03E
:1014700000BF40F21863C2F200034FF001021A707D
:101480004FF0060001F06AFF80BD00BF80B500AFDD
:1014900040F21A63C2F200031B78002B01D1FFF760
:1014A00059FC40F20063C2F200039A6840F2006304
:1014B000C2F200031B689A4206D140F21003C2F246
:1014C00000034FF004021A7080BD00BF80B500AF6A
:1014D00040F21C63C2F200034FF000021A7040F2A7
:1014E0009653C2F200031B78002B2CD140F2965386
:1014F000C2F200034FF001021A704FF0090001F030
:101500004BFF4FF003004FF0090149F23072C0F277
:10151000000201F0CFFE4FF0090001F01FFF49F279
:101520003470C0F200004FF00B014FF0000201F0E8
:1015300087FD49F23470C0F200004FF00B014FF00C
:10154000010201F07DFD40F21863C2F200031B7836
:10155000002B40F09D8040F20063C2F200031B6844
:10156000032B00F28D8001A252F823F07D150000BC
:10157000BB150000FD1500003F1600004FF00300F2
:101580004FF0060149F29062C0F2000201F092FEB3
:1015900049F22870C0F200004FF005014FF0000240
:1015A00001F04EFD49F22870C0F200004FF0050135
:1015B0004FF0010201F044FD63E0FEF7C9FD4FF07A
:1015C00003004FF0060149F2A062C0F2000201F0F0
:1015D00071FE49F2A860C0F200004FF005014FF023
:1015E000000201F02DFD49F2A860C0F200004FF0AA
:1015F00005014FF0010201F023FD42E0FEF7A8FDD6
:101600004FF003004FF0060149F2B062C0F2000251
:1016100001F050FE49F2B860C0F200004FF0050141
:101620004FF0000201F00CFD49F2B860C0F200007A
:101630004FF005014FF0010201F002FD21E0FEF73D
:1016400087FD4FF003004FF0060149F2C062C0F27F
:10165000000201F02FFE49F2C860C0F200004FF016
:1016600005014FF0000201F0EBFC49F2C860C0F246
:1016700000004FF005014FF0010201F0E1FC00E035
:1016800000BF40F21863C2F200034FF001021A706B
:101690004FF0060001F062FE80BD00BF80B500AFD4
:1016A00040F21A63C2F200031B78002B01D1FFF74E
:1016B00051FB40F20063C2F200039A6840F20063FB
:1016C000C2F200031B689A420DD140F21963C2F2C4
:1016D00000034FF000021A7040F21003C2F2000340
:1016E0004FF004021A7080BD80B500AF40F219635C
:1016F000C2F200031B78002B40F0C580FEF766FDA8
:1017000040F20063C2F200039A6840F20063C2F242
:1017100000031A60FFF78CF840F21963C2F200036D
:101720004FF001021A7040F20063C2F200031B681E
:10173000032B00F2878001A252F823F04D1700001E
:101740008B170000C9170000071800004FF00300B6
:101750004FF0060149F29062C0F2000201F0AAFDCA
:1017600049F29860C0F200004FF005014FF000020E
:1017700001F066FC49F29860C0F200004FF00501EC
:101780004FF0010201F05CFC5DE04FF003004FF010
:10179000060149F2A062C0F2000201F08BFD49F29D
:1017A000A860C0F200004FF005014FF0000201F008
:1017B00047FC49F2A860C0F200004FF005014FF06D
:1017C000010201F03DFC3EE04FF003004FF0060146
:1017D00049F2B062C0F2000201F06CFD49F2B8605B
:1017E000C0F200004FF005014FF0000201F028FCAC
:1017F00049F2B860C0F200004FF005014FF001025D
:1018000001F01EFC1FE04FF003004FF0060149F20B
:10181000C062C0F2000201F04DFD49F2C860C0F2A2
:1018200000004FF005014FF0000201F009FC49F201
:10183000C860C0F200004FF005014FF0010201F056
:10184000FFFB00E000BF49F24070C0F200004FF023
:101850000C014FF0000201F0F3FB49F24070C0F2BE
:1018600000004FF00C014FF0010201F0E9FB4FF0D6
:1018700003004FF0090149F24C72C0F2000201F07E
:1018800019FD01F043FD80BD80B400AF40F2FE536E
:10189000C2F200031B78002B14D040F21963C2F28D
:1018A00000034FF000021A7040F2FE53C2F2000330
:1018B0004FF000021A7040F21003C2F200034FF022
:1018C00005021A70BD4680BC704700BF80B500AFEE
:1018D0004FF003004FF0090149F26072C0F20002BC
:1018E00001F0E8FC01F012FD49F27470C0F2000052
:1018F0004FF00E014FF0000201F0A2FB49F27470AC
:10190000C0F200004FF00E014FF0010201F098FB11
:1019100080BD00BF80B582B000AF4FF000033B60D8
:1019200030E040F29753C2F200031B78002B25D021
:1019300049F28470C0F200004FF012014FF0000233
:1019400001F07EFB49F28470C0F200004FF01201FA
:101950004FF0010201F074FB4FF00003FB7140F205
:101960001B63C2F200034FF001021A7040F2100331
:10197000C2F200034FF004021A700AE03B6803F160
:1019800001033B603A6842F2BF73C0F209039A4216
:10199000C7DD40F21A63C2F200034FF000021A7072
:1019A00040F21003C2F200034FF001021A7007F177
:1019B0000807BD4680BD00BF80B500AF40F21003F0
:1019C000C2F200031B7803F1FF33042B25D801A2D8
:1019D00052F823F0E9190000F3190000FD19000086
:1019E000071A0000111A0000FFF724FBFFF7EEFBB7
:1019F00014E0FFF763FCFFF749FD0FE0FFF766FD1A
:101A0000FFF74CFE0AE0FFF76FFEFFF73DFF05E032
:101A1000FFF75CFFFFF77EFF00E000BF80BD00BF67
:101A200080B500AFFFF7DAFAFFF75AF9FFF7C4FF06
:101A3000FAE700BF80B400AF40F29453C2F2000353
:101A40001B7803F10103DAB240F29453C2F20003AF
:101A50001A7040F29453C2F200031B782D2B06D16A
:101A600040F29453C2F200034FF000021A70BD46D8
:101A700080BC704780B483B000AF78607B684FEA69
:101A8000137249F2B473C0F2000353F822301A46BD
:101A90007B684FEA137149F2B473C0F2000353F844
:101AA000213019687B684FEA03434FEA1343786893
:101AB00000F4F8104FEA104003FA00F341EA030380
:101AC000136007F10C07BD4680BC70470138FDD19B
:101AD000704700BF80B586B000AF78604FF46043B8
:101AE000C4F20F031B6803F0E043002B0DD04FF44A
:101AF0006043C4F20F031A684FF00003C7F2FF03FC
:101B000002EA0303B3F1805F03D17B68002BC0F2CC
:101B100023814EF26003C4F20F031B683B614EF257
:101B20007003C4F20F031B68FB603B6943F400635E
:101B30003B613B6923F480033B61FB6843F4006332
:101B4000FB604EF26003C4F20F033A691A604EF272
:101B50007003C4F20F03FA681A603B6903F00203D2
:101B6000002B04D07B6803F00203002B0AD03B69F2
:101B700003F00103DBB2002B2FD07B6803F00103DD
:101B8000002B2AD17B6863F003033A6902EA03035E
:101B90003B614EF26003C4F20F033A691A60FB68BE
:101BA000002B09DAFB6803F07003302B0CD0FB68C4
:101BB00003F07003702B07D0FB68002B09DB3B6937
:101BC00003F03003302B04D14FF48050FFF77EFF39
:101BD00003E04FF40020FFF779FF3B6923F45E53E5
:101BE00023F070033B617A6843F2F07302EA030367
:101BF0003A6942EA03033B61FA684DF68F73C7F610
:101C0000FF7302EA0303FB607A6842F23003C8F212
:101C1000000302EA0303FA6842EA0303FB607B68FD
:101C200003F008034FEAC303FA6842EA0303FB60C8
:101C30004EF25803C4F20F034FF040021A60FB68E3
:101C4000002B0CDA4EF27003C4F20F03FA681A602C
:101C50004EF26003C4F20F033A691A600BE04EF2D1
:101C60006003C4F20F033A691A604EF27003C4F2C3
:101C70000F03FA681A604FF01000FFF727FF3B6967
:101C800023F0F86323F003033B617A684FF003030A
:101C9000C0F2C07302EA03033A6942EA03033B61FC
:101CA000FB6823F0FC53FB607B6803F0FC53FA688D
:101CB00042EA0303FB607B6803F08043002B13D0F0
:101CC0003B6943F480033B61FB6823F48003FB60C2
:101CD0007A684FF00003C4F2400302EA0303FA6893
:101CE00042EA0303FB6003E0FB6823F08043FB60F0
:101CF0007B6803F40063002B1DD14FF400437B612C
:101D00000CE04EF25003C4F20F031B6803F04003D3
:101D1000002B07D17B6903F1FF337B617B69002BCB
:101D2000EFD100E000BF3B6923F400633B61FB6837
:101D300023F40063FB604EF26003C4F20F033A69C0
:101D40001A604EF27003C4F20F03FA681A604FF083
:101D50001000FFF7BBFE00E000BF07F11807BD460B
:101D600080BD00BF80B485B000AF4EF26003C4F206
:101D70000F031B68FB604EF27003C4F20F031B6875
:101D80007B607B68002B03DA7B6803F0700302E062
:101D9000FB6803F03003202B7FD0202B04D8002BCE
:101DA0000CD0102B17D0E6E0602B00F0DC80702BFD
:101DB00000F0DD80302B00F0D280DCE0FB6803F423
:101DC000F8634FEA931249F2D873C0F2000353F854
:101DD0002230BB60D2E04FF46043C4F20F031B68B3
:101DE00003F0E043002B0DD04FF46043C4F20F0327
:101DF0001A684FF00003C7F2FF0302EA0303B3F1CE
:101E0000805F05D14EF2C013C0F2E403BB6043E033
:101E10004FF46043C4F20F031A684FF00003C7F297
:101E2000FF0302EA03034FF00002C1F201029342F2
:101E30000AD14FF46043C4F20F031B684FEA034317
:101E40004FEA1343022B1BD04FF46043C4F20F033D
:101E50001A684FF00003C7F2FF0302EA03034FF0D2
:101E60000002C1F20302934210D14FF46043C4F266
:101E70000F031B684FEA03434FEA1343002B05D1BE
:101E80004FF4D853C0F2B703BB6005E04FF41053D2
:101E9000C0F2F403BB6071E070E04FF46043C4F241
:101EA0000F031B6803F0E043002B0DD04FF4604399
:101EB000C4F20F031A684FF00003C7F2FF0302EAEF
:101EC0000303B3F1805F05D143F67003C0F2390319
:101ED000BB6043E04FF46043C4F20F031A684FF055
:101EE0000003C7F2FF0302EA03034FF00002C1F24E
:101EF000010293420AD14FF46043C4F20F031B68FE
:101F00004FEA03434FEA1343022B1BD04FF46043C5
:101F1000C4F20F031A684FF00003C7F2FF0302EA8E
:101F200003034FF00002C1F20302934210D14FF4B9
:101F30006043C4F20F031B684FEA03434FEA1343A5
:101F4000002B05D14CF2C063C0F22D03BB6005E04D
:101F50004FF41063C0F23D03BB600FE00EE047F2A8
:101F60003053BB600AE04FF48003BB6006E04FF4DF
:101F70000043BB6002E04FF00003AEE07B68002B43
:101F800004DA7B6803F40063002B07D07B68002B26
:101F900060DBFB6803F40063002B5BD14EF264034B
:101FA000C4F20F031B683B604FF46043C4F20F039D
:101FB0001B6803F0E043002B0DD04FF46043C4F2E4
:101FC0000F031A684FF00003C7F2FF0302EA03038E
:101FD000B3F1805F14D13A6843F6E07302EA030379
:101FE0004FEA531303F10203BA6802FB03F23B68A2
:101FF00003F01F0303F10203B2FBF3F3BB6013E032
:102000003A6843F6E07302EA03034FEA5313BA68EF
:1020100002FB03F23B6803F01F0303F101034FEAE5
:102020004303B2FBF3F3BB603B6803F48043002B34
:1020300003D0BB684FEA5303BB603B6803F4004323
:10204000002B03D0BB684FEA9303BB60FB6843F4EB
:102050008003FB60FB6803F48003002B3CD07B68AB
:10206000002B2EDA7B6803F08043002B1DD07B68A9
:10207000002B04DA7B6803F40063002B07D07B6835
:10208000002B12DBFB6803F40063002B0DD1BB684F
:102090004FEA43027B6803F0FE534FEA935303F188
:1020A0000103B2FBF3F3BB6016E07B6803F0FC5363
:1020B0004FEAD35303F10103BA68B2FBF3F3BB60F9
:1020C0000AE0FB6803F0F0634FEAD35303F1010326
:1020D000BA68B2FBF3F3BB60BB68184607F114079C
:1020E000BD4680BC704700BF80B500AF4FF02000F8
:1020F000C2F20000FFF7BEFC4FF4A040C4F20200A1
:102100004FF0010100F012FA4FF4A040C4F20200B7
:102110004FF0040100F00AFA4FF4A040C4F20200AC
:102120004FF0080100F002FA4FF4A040C4F20200A0
:102130004FF004014FF0040200F0C8F94FF4A04042
:10214000C4F202004FF008014FF0080200F0BEF99F
:1021500080BD00BF80B500AF4FF4A040C4F20200C4
:102160004FF004014FF0000200F0B0F94FF4A0402E
:10217000C4F202004FF008014FF0080200F0A6F987
:1021800080BD00BF80B500AF4FF4A040C4F2020094
:102190004FF004014FF0040200F098F94FF4A04012
:1021A000C4F202004FF008014FF0080200F08EF96F
:1021B00080BD00BF80B500AF4FF4A040C4F2020064
:1021C0004FF001014FF0010200F080F980BD00BF27
:1021D00080B500AF4FF4A040C4F202004FF00101FF
:1021E0004FF0000200F072F980BD00BF80B485B0EE
:1021F00000AFF8600B467A60FB72FB6803F5806302
:102200001A467B6803F00103DBB2002B07D0FB68A2
:1022100003F580631968FB7A41EA030308E0FB6871
:1022200003F580631968FB7A6FEA030301EA03038D
:102230001360FB6803F584631A467B6803F00203AE
:10224000002B07D0FB6803F584631968FB7A41EA29
:10225000030308E0FB6803F584631968FB7A6FEAFF
:10226000030301EA0303136007F11407BD4680BCB2
:10227000704700BF80B485B000AFF8607A603B6003
:102280000B46FB72FB6803F5A0631A467B6803F0FC
:102290000103DBB2002B07D0FB6803F5A0631968CC
:1022A000FB7A41EA030308E0FB6803F5A0631968C1
:1022B000FB7A6FEA030301EA03031360FB6803F58B
:1022C000A06303F104031A467B6803F00203002BAA
:1022D00009D0FB6803F5A06303F104031968FB7AD6
:1022E00041EA03030AE0FB6803F5A06303F104037A
:1022F0001968FB7A6FEA030301EA03031360FB68C2
:1023000003F5A1631A467B6803F00403002B07D092
:10231000FB6803F5A1631968FB7A41EA030308E04F
:10232000FB6803F5A1631968FB7A6FEA030301EA0E
:1023300003031360FB6803F5A3631A467B6803F08D
:102340000803002B07D0FB6803F5A3631968FB7A29
:1023500041EA030308E0FB6803F5A3631968FB7A0D
:102360006FEA030301EA03031360FB6803F5A0634C
:1023700003F10C031A463B6803F00103DBB2002BA8
:1023800009D0FB6803F5A06303F10C031968FB7A1D
:1023900041EA03030AE0FB6803F5A06303F10C03C1
:1023A0001968FB7A6FEA030301EA03031360FB6811
:1023B00003F5A2631A463B6803F00203002B07D023
:1023C000FB6803F5A2631968FB7A41EA030308E09E
:1023D000FB6803F5A2631968FB7A6FEA030301EA5D
:1023E00003031360FB6803F5A26303F104031A46B9
:1023F0003B6803F00403002B09D0FB6803F5A263DC
:1024000003F104031968FB7A41EA03030AE0FB685D
:1024100003F5A26303F104031968FB7A6FEA03036F
:1024200001EA03031360FB6803F5A26303F10C03E5
:102430001A463B6803F00803002B09D0FB6803F53C
:10244000A26303F10C031968FB7A41EA03030AE073
:10245000FB6803F5A26303F10C031968FB7A6FEACA
:10246000030301EA03031360FB6803F5A5631A463F
:102470003B68002B07D1FB6803F5A5631968FB7A5D
:1024800041EA030308E0FB6803F5A5631968FB7ADA
:102490006FEA030301EA0303136007F11407BD4663
:1024A00080BC704780B483B000AF78600B46FB708F
:1024B000FB784FEA83031A467B68D3181B681846DB
:1024C00007F10C07BD4680BC704700BF80B483B0E5
:1024D00000AF786013460A46FA70BB70FB784FEA8B
:1024E00083031A467B68D318BA781A6007F10C0781
:1024F000BD4680BC704700BF80B582B000AF786039
:102500000B46FB70FB78786819464FF00002FFF726
:102510006DFEFB78786819464FF001024FF0080312
:10252000FFF7A8FE07F10807BD4680BD80B582B061
:1025300000AF78600B46FB70FB78786819464FF067
:102540000102FFF753FEFB78786819464FF001024D
:102550004FF00803FFF78EFE07F10807BD4680BD68
:1025600080B582B000AF78600B46FB70FB7878686E
:1025700019464FF00202FFF739FEFB7878681946DA
:102580004FF001024FF00803FFF774FE07F1080750
:10259000BD4680BD80B582B000AF78600B46FB7051
:1025A000FB78786819464FF00202FFF71FFEFB78B0
:1025B000786819464FF001024FF00803FFF75AFE02
:1025C00007F10807BD4680BD80B500AF00F02EFEC4
:1025D0000346DBB2184680BD80B483B000AF78609C
:1025E0007B68042B0CD14EF62453CEF200034EF63A
:1025F0002452CEF20002126842F480321A6051E096
:102600007B68052B0CD14EF62453CEF200034EF618
:102610002452CEF20002126842F400321A6041E005
:102620007B68062B0CD14EF62453CEF200034EF6F7
:102630002452CEF20002126842F480221A6031E085
:102640007B680F2B0CD14EF21003CEF200034EF23A
:102650001002CEF20002126842F002021A6021E07B
:102660007B680F2B0FD97B682F2B0CD84FF461435D
:10267000CEF200037A68A2F110024FF0010101FAD4
:1026800002F21A600EE07B682F2B0BD94EF2041376
:10269000CEF200037A68A2F130024FF0010101FA94
:1026A00002F21A6007F10C07BD4680BC704700BFFC
:1026B00080B483B000AF78607B68042B0CD14EF6F9
:1026C0002453CEF200034EF62452CEF200021268DA
:1026D00022F480321A6051E07B68052B0CD14EF653
:1026E0002453CEF200034EF62452CEF200021268BA
:1026F00022F400321A6041E07B68062B0CD14EF6C2
:102700002453CEF200034EF62452CEF20002126899
:1027100022F480221A6031E07B680F2B0CD14EF23C
:102720001003CEF200034EF21002CEF20002126845
:1027300022F002021A6021E07B680F2B0FD97B6820
:102740002F2B0CD84EF28013CEF200037A68A2F140
:1027500010024FF0010101FA02F21A600EE07B68EC
:102760002F2B0BD94EF28413CEF200037A68A2F11C
:1027700030024FF0010101FA02F21A6007F10C0772
:10278000BD4680BC704700BF80B582B000AF7860A6
:10279000396040F2B853C2F2000303F0704240F2D5
:1027A000B853C2F2000323F07F4323F470034FEACF
:1027B000431342EA030343F000731B68002B5BD012
:1027C00040F2B853C2F2000303F0704240F2B85333
:1027D000C2F2000323F07F4323F470034FEA431354
:1027E00042EA030343F0007343F004031B68002B29
:1027F0003ED000BF4FF40040C4F2000000F000FDE6
:102800000346002BF6D14FF48040C4F200004FF095
:1028100040014FF00002FFF759FE40F2B853C2F2F8
:10282000000303F0704240F2B853C2F2000323F0F9
:102830007F4323F470034FEA431342EA030343F058
:10284000007343F004034FF000021A6010E07B684D
:102850001B787A6802F101027A604FF40040C4F2FA
:102860000000194600F0B4FC3B6803F1FF333B6005
:102870003B68002BEBD100E000BF07F10807BD4625
:1028800080BD00BF80B582B000AF7860396040F293
:10289000B853C2F2000303F0704240F2B853C2F2E0
:1028A000000323F07F4323F470034FEA431342EA0B
:1028B000030343F000731B68002B5BD040F2B85356
:1028C000C2F2000303F0704240F2B853C2F20003B8
:1028D00023F07F4323F470034FEA431342EA0303D8
:1028E00043F0007343F004031B68002B3ED100BF8C
:1028F0004FF40040C4F2000000F082FC0346002BBD
:10290000F6D14FF48040C4F200004FF040014FF088
:102910004002FFF7DBFD40F2B853C2F2000303F0C0
:10292000704240F2B853C2F2000323F07F4323F415
:1029300070034FEA431342EA030343F0007343F08A
:1029400004034FF001021A6010E07B681B787A687C
:1029500002F101027A604FF40040C4F2000019460F
:1029600000F036FC3B6803F1FF333B603B68002B13
:10297000EBD100E000BF07F10807BD4680BD00BFF6
:1029800080B582B000AF40F2BC53C2F200034FF0FA
:1029900000021A6040F2BC53C2F2000303F10403C8
:1029A0004FF000021A6049F67020C0F200004FF0AC
:1029B0000301FFF7E9FE49F67420C0F200004FF072
:1029C0000301FFF7E1FE49F63800C0F200004FF0C6
:1029D0000201FFF7D9FE4FF000037B6016E04FF0D5
:1029E00000033B600BE040F2BC50C2F200004FF02D
:1029F0000801FFF747FF3B6803F110033B603B68AA
:102A00007F2BF0D97B6803F101037B607B685F2B30
:102A1000E5D907F10807BD4680BD00BF80B588B085
:102A200000AFF860B9607A60FB7040F2BC53C2F24C
:102A300000034FF015021A70BB684FEA5303DAB275
:102A400040F2BC53C2F200035A7040F2BC53C2F2CF
:102A500000034FF03F029A7040F2BC50C2F20000F7
:102A60004FF00301FFF790FE40F2BC53C2F20003A7
:102A70004FF075021A707B68DAB240F2BC53C2F2B2
:102A800000035A707B68DBB203F10703DAB240F24D
:102A9000BC53C2F200039A7040F2BC50C2F2000074
:102AA0004FF00301FFF770FE49F63400C0F200005A
:102AB0004FF00201FFF768FE94E0FB681B7803F01B
:102AC0007F03FB75FB6803F10103FB60FB7D1F2B9C
:102AD00003D84FF00003FB7503E0FB7DA3F1200357
:102AE000FB754FF00003FB6179E04FF00003BB6121
:102AF0005FE040F2BC53C2F20003BA699B184FF08A
:102B000000021A70F97D49F63C02C0F200020B4641
:102B10004FEA83035B18F9695B18D3181B781A46D0
:102B2000BB6942FA03F303F00103DBB2002B0AD0C6
:102B3000FB784FEA0313DAB240F2BC53C2F200034F
:102B4000B9695B181A70FB69032B2ED8F97DFB69F4
:102B500003F1010049F63C02C0F200020B464FEAC5
:102B600083035B181B18D3181B781A46BB6942FAFB
:102B700003F303F00103DBB2002B16D040F2BC5389
:102B8000C2F20003BA699B181B78DAB2FB7803F033
:102B90000F03DBB242EA0303DBB2DAB240F2BC530A
:102BA000C2F20003B9695B181A70BB6903F1010333
:102BB000BB61BB69072B9CD940F2BC50C2F200003C
:102BC0004FF00801FFF75EFEBB6803F10203BB6034
:102BD000BB68802B0CD0FB6903F10203FB61FB692E
:102BE000052B82D9FB681B78002B7FF466AF00E0D1
:102BF00000BF07F12007BD4680BD00BF80B584B08F
:102C000002AF78604FF40040C4F2000000F0CCFA4C
:102C1000FFF7A8F803467A6800924FF00802019285
:102C20004FF40040C4F2000019464FF003024FF089
:102C3000000300F04BFA4FF48040C4F200004FF064
:102C40000801FFF78DFC4FF48040C4F200004FF004
:102C500008014FF004024FF00A03FFF70BFB4FF49B
:102C60000040C4F2000000F08BFA40F2B853C2F208
:102C7000000303F0704240F2B853C2F2000323F0A5
:102C80007F4323F470034FEA431342EA030343F004
:102C900000734FF001021A6007F10807BD4680BDBE
:102CA00080B584B000AF78604FF01000C1F2000032
:102CB000FEF7E0FE4FF00100C2F20000FEF7DAFE80
:102CC0004FF00100C2F20000FEF7D4FE4FF4804046
:102CD000C4F200004FF02C01FFF742FC4FF480409B
:102CE000C4F200004FF02C014FF004024FF00A0331
:102CF000FFF7C0FA4FF48040C4F200004FF0C0016B
:102D0000FFF714FC4FF48040C4F200004FF0C00104
:102D10004FF004024FF00803FFF7ACFA4FF4804085
:102D2000C4F200004FF0C0014FF0C002FFF7CEFB2D
:102D300040F2B853C2F2000303F0704240F2B853BD
:102D4000C2F2000323F07F4323F470034FEA4313DE
:102D500042EA030343F0007343F004034FF001021F
:102D60001A607868FFF74AFFFFF70AFE4FF000038A
:102D7000FB6021E0FB6803F1010249F61C23C0F26D
:102D80000003D21849F61C23C0F20003F9685B184F
:102D90001B7803F1FF3310461946FFF7F5FC49F69F
:102DA0001C23C0F20003FA689B181B781A46FB68C4
:102DB000D31803F10103FB60FB684E2BDAD907F14E
:102DC0001007BD4680BD00BF80B500AF4FF01000BA
:102DD000C2F20000FEF74EFE4FF48040C4F2020043
:102DE0004FF00101FFF788FB4FF48040C4F202006E
:102DF0004FF001014FF001024FF00A03FFF73AFADA
:102E00004FF48040C4F202004FF00201FFF774FB60
:102E10004FF48040C4F202004FF002014FF0010273
:102E20004FF00A03FFF726FA4FF48040C4F2020085
:102E30004FF00401FFF760FB4FF48040C4F2020042
:102E40004FF004014FF001024FF00A03FFF712FAAE
:102E50004FF48040C4F202004FF00801FFF74CFB32
:102E60004FF48040C4F202004FF008014FF001021D
:102E70004FF00A03FFF7FEF980BD00BF80B582B0B6
:102E800000AF49F66043C0F200037B6040F20003EC
:102E9000C2F200033B600BE07B681A683B681A6073
:102EA0003B6803F104033B607B6803F104037B6030
:102EB0003A6840F29453C2F200039A42ECD30848B5
:102EC00008494FF000028842B8BF40F8042BFADBF3
:102ED000FDF794F9FEF7A4FD07F10807BD4680BD94
:102EE000940500202C07002080B400AFFEE700BF4F
:102EF00080B485B000AF786040F2C453C2F20003E2
:102F00001B68002B08D140F63032C2F2000240F2BA
:102F1000C453C2F200031A6040F2C453C2F2000369
:102F20001B68FB6040F2C453C2F200031A687B685E
:102F3000D21840F2C453C2F200031A60FB6818466C
:102F400007F11407BD4680BC704700BF80B500AFD5
:102F50004FF46E50C0F28070FEF7BCFD4FF00100E0
:102F6000C1F20000FEF786FD4FF00200C1F2000042
:102F7000FEF780FD4FF00100C2F20000FEF77AFD7F
:102F80004FF48040C4F200004FF00301FFF702FB52
:102F90004FF00800C2F20000FEF76CFD4FF4E04075
:102FA000C4F200004FF00C01FFF7F4FA4FF4404078
:102FB000C4F20000FDF7F6FBFEF7D4FE03464FF423
:102FC0004040C4F2000019464FF416524FF06E0311
:102FD000FDF774FB4FF44040C4F20000FDF7C2FB64
:102FE0004FF45040C4F20000FDF7DCFBFEF7BAFEE0
:102FF00003464FF45040C4F2000019464FF41652F5
:103000004FF06E03FDF75AFB4FF45040C4F200003E
:10301000FDF7A8FB49F67820C0F200004FF00F0141
:103020004FF0000200F00CF849F67820C0F20000E2
:103030004FF00F014FF0010200F002F880BD00BF19
:1030400080B584B000AFF860B9607A607B68002B0F
:103050001AD10CE0FB681B78FA6802F10102FA60F1
:103060004FF44040C4F200001946FDF7C5FBBB68B1
:10307000002B0CBF00230123DBB2BA6802F1FF3240
:10308000BA60002BE6D11CE07B68012B19D10CE063
:10309000FB681B78FA6802F10102FA604FF45040B5
:1030A000C4F200001946FDF7A7FBBB68002B0CBF5C
:1030B00000230123DBB2BA6802F1FF32BA60002BB1
:1030C000E6D107F11007BD4680BD00BF80B48BB0CC
:1030D00000AFF860B9607A603B603B68022B02D1B8
:1030E0004FF0080301E04FF000033B623B68002B08
:1030F00002D14FF0000301E04FF004033A6A42EAC4
:1031000003033B62FB6803F104033A6A1A60BA687E
:103110003B6BB2FBF3F3FB614FF000037B627B6A16
:1031200003F102037B62FA697B6AB2FBF3F303F1FA
:10313000FF33BB61BB69FF2BF1D8FB6803F11003C0
:103140007A6A1A607B684FEA83137B617B6803F0BD
:1031500030037B60BB694FEA03227B691A437B68BB
:103160001A437B6B03F1FF3342EA03033B62FB68C4
:103170003A6A1A6007F12C07BD4680BC704700BF51
:1031800080B483B000AF78607B6803F104037A6891
:1031900002F10402126842F002021A6007F10C0701
:1031A000BD4680BC704700BF80B483B000AF78607C
:1031B0007B6803F104037A6802F10402126822F0CA
:1031C00002021A6007F10C07BD4680BC704700BFC1
:1031D00080B483B000AF7860396000BF7B6803F1D2
:1031E0000C031B6803F00203002BF7D07B6803F18C
:1031F00008033A681A6007F10C07BD4680BC7047A7
:1032000080B483B000AF78607B6803F10C031B6867
:1032100003F01003002B0CBF00230123DBB2184680
:1032200007F10C07BD4680BC704700BFEFF3108468
:1032300062B670472346184680B582B000AF00F0F2
:10324000CFF84FF000037B602CE04FF000033B60B1
:1032500012E040F22063C2F200037A684FF01601D8
:1032600001FB02F13A688A189B184FF020021A708D
:103270003B6803F101033B603B68142BE9DD40F23E
:103280002063C2F200037A684FF0160101FB02F2DC
:103290009B1803F115034FF000021A707B6803F1CD
:1032A00001037B607B680B2BCFDD07F10807BD4670
:1032B00080BD00BF80B586B000AFF860B9607A60AD
:1032C000786800F0F3F803467B61FB68C3F11502F0
:1032D0007B699A4203DAFB68C3F115037B6140F214
:1032E0002063C2F20003BA684FF0160101FB02F13D
:1032F000FA688A189A187B69104679681A4600F0AD
:1033000005F907F11807BD4680BD00BF80B582B042
:1033100000AF4FF000037B6018E040F22063C2F280
:1033200000037A684FF0160101FB02F29A187B68DD
:103330004FEAC30310464FF000011A464FF00F0347
:1033400000F058F87B6803F101037B607B680B2B6E
:10335000E3DD07F10807BD4680BD00BF80B582B040
:1033600000AF786040F22063C2F200037A684FF049
:10337000160101FB02F29A187B684FEAC30310465C
:103380004FF000011A464FF00F0300F033F807F139
:103390000807BD4680BD00BF80B485B000AF78602F
:1033A0004FF00003FB6012E040F22063C2F2000322
:1033B0007A684FF0160101FB02F1FA688A189B182F
:1033C0004FF020021A70FB6803F10103FB60FB68F9
:1033D000142BE9DD07F11407BD4680BC704700BF20
:1033E00080B500AF44F24020C0F20F00FFF758FC58
:1033F00080BD00BF80B584B000AFF860B9607A606E
:10340000FB70FB78F868B9687A68FFF707FB07F18B
:103410001007BD4680BD00BF0CB44FF4027370B5F9
:103420009CB020AC0E46ADF8103001A954F8042B26
:103430004FF0FF33ADF812306FF000452346019690
:103440000596039506951B9400F09EF8019B0022BB
:103450001A701CB0BDE8704002B070470EB440F264
:103460001403F0B59CB021ACC2F20003064601A9DA
:1034700054F8042B6FF0004518684FF40277234688
:10348000019605964FF0FF36ADF81070ADF812605A
:10349000039506951B9400F077F8019B00221A70A3
:1034A0001CB0BDE8F04003B0704700BF20F003013E
:1034B00010F00300C0F1000051F8043B00F1040CCF
:1034C0004FEACC0C6FF000021CBF22FA0CF213433F
:1034D0004FF0010C4CEA0C2C4CEA0C4CA3EB0C0208
:1034E00022EA030212EACC1204BF51F8043B043072
:1034F000F4D013F0FF0F1FBF013013F47F4F0130E2
:1035000013F47F0F18BF0130704700BF41EA00037A
:1035100013F0030F034670B414BF00250125032ADE
:1035200094BF002505F001050C460646CDB9B2B1A1
:103530000D783446531E04F8015B55B1B21C73B1CB
:1035400011F8015F1446013B02F8015C0132002DC5
:10355000F5D123B10022013B04F8012BFBD170BC53
:103560007047214654F8045BA5F1013626EA0506AA
:1035700016F0803F05D1043A43F8045B032A214644
:10358000EFD81E46D3E700BF2DE9F04FC5B0144673
:1035900012930C91119002F063FB00681990FFF7F1
:1035A00085FF1C900C98838913F0800F03D003696A
:1035B000002B01F084810DF17C0A002356460DF1A9
:1035C000F7010E9309941A931B9317931D930F936E
:1035D0000791CDF8E4A03B933A93099A1378B3F19D
:1035E000250218BF0122002B0CBF002302F00103AB
:1035F000002B00F0BD80099B5A1C174601323B7816
:10360000191E18BF0121252B0CBF002301F0010357
:10361000002BF2D1099CB7EB040810D03A9C099812
:1036200001343B9D072CC6F80480306045443A9431
:103630003B9500F3818008360F9941440F913B7808
:10364000002B00F081807C1C002200230D928DF85D
:103650000F31202509942B217B784FF0FF370892FA
:1036600022460132A3F12000582800F21D83DFE832
:1036700010F02E031B031B0337031B031B031B0349
:103680001B031B031B03C80381001B035D00850094
:103690001B039F00A500A500A500A500A500A5008F
:1036A000A500A500A5001B031B031B031B031B0395
:1036B0001B031B031B031B031B03B70042021B035B
:1036C00042021B031B031B031B0380021B031B0380
:1036D00086021B031B031B031B031B03A4021B0308
:1036E0001B03B3021B031B031B031B031B031B0353
:1036F0001B031B031B031B0355033D034202420232
:1037000042024F033D031B031B030C031B039B03DC
:1037100069037F03DE021B03E4021B03AC031B03EC
:103720001B03D3030D9B12905B420D93089C44F046
:1037300004040894137894E7119839AA0C9903F0BB
:1037400037FC40B9564677E73B9B23B1119839AA1D
:103750000C9903F02DFC0C990F9A8B8913F0400FF4
:1037600018BF4FF0FF320F920F9845B0BDE8F08FB1
:10377000099F64E78DF80F11137872E712F8013B87
:103780002A2B01F00B82A3F13000092801F2C1813C
:103790001446002714F8013B07EB870700EB4707A7
:1037A000A3F1300009282246F4D947EAE77759E720
:1037B000089B43F080030893137852E714460020D7
:1037C000A3F1300814F8013B00EB8000A3F1300CAA
:1037D0002246BCF1090F08EB4000F1D90D9041E7FA
:1037E0000992089A169342F010020892089B13F06F
:1037F000200F00F08282129CE31D23F0070303F1E7
:1038000008001290D3E90045002C75F10002C0F2C7
:10381000CE8554EA05034FF001030CBF00220122BC
:10382000002FA2BF089921F080010891002F18BF36
:1038300042F00102002A00F0AD83012B00F0FF846A
:10384000022B00F0DF840DF1BC0B0BF12703EA081B
:103850004FEAD40848EA457804F00704114604F119
:1038600030020D46444654EA05009C461A7003F1A6
:10387000FF33ECD10899CDF84CC011F0010F40F0A6
:1038800088850BF1280BCCEB0B0210929DF80F21D1
:103890000020109C1597BC42B8BF3C4618900A9473
:1038A00012B10A9801300A90089911F0020B02D067
:1038B0000A9B02330A93089C14F08404149440F089
:1038C000CD820D980A99471A002F40F3C782102F16
:1038D00041F379803B9D49F688283A9CC0F2000864
:1038E00029464FF0100922460C9D4446DDF84480DD
:1038F00002E0103F102F1BDD01323460C6F8049047
:1039000010310836072A3A9206F108033B91F0DDA0
:103910004046294639AA564603F04AFB0AF10803F5
:1039200000287FF418AF103F3B99102F3A9AE3DC40
:10393000A0460D4614460134C6F80080072C776077
:103940003D443A943B9500F37E829DF80F211E463C
:103950006AB13A9C43AB0333336001340123072C33
:1039600073601D443A943B9500F3E9830836BBF13C
:10397000000F0CD03A9C43AB3360022301347360D8
:10398000072C1D443A943B9500F3CE830836149AD5
:10399000802A00F01083159910980F1A002F40F319
:1039A0005B83102F40F3EC853A9C2A46DFF8988A17
:1039B0004FF0100B23460C9D4446DDF8448002E096
:1039C000103F102F1BDD01333460C6F804B01032F5
:1039D0000836072B3A9306F108093B92F0DD404682
:1039E000294639AA0AF1080903F0E2FA56460028E6
:1039F0007FF4B1AE103F3B9A102F3A9BE3DCA04618
:103A000015461C460134C6F80080072C77603D44FB
:103A10003A943B9500F37D83089A12F4807F40F03E
:103A20004E823A9C109B01341398072C1D44C9F810
:103A30000430C9F800003B953A9400F3358209F14F
:103A40000809089C14F0040F46D00D980A99461AEC
:103A5000002E41DD102E41F30B803A9C49F6882858
:103A6000C0F2000810272346DDF830B04446DDF8E8
:103A7000448002E0103E102E19DD01331035072B73
:103A8000C9F80040C9F8047009F108093A933B9558
:103A9000F0DD4046594639AAD14603F089FA00289C
:103AA0007FF459AE103E3B9D102E3A9BE5DCA046BC
:103AB0001C460134C9F80080072CC9F8046035445D
:103AC0003A943B9508DD119839AA0C9903F070FAE5
:103AD00000287FF440AE3B9D0F9A0A9C0D9B9C42B0
:103AE000ACBF1219D2180F92002D40F003830020B2
:103AF00056463A9071E508991D46099211F0080F53
:103B0000169300F08784129AD31D23F0070303F164
:103B10000804129418681A905B681B931A981B99F2
:103B200003F0FCF8012840F050841A98002200238A
:103B30001B9905F09DF9002840F02E879DF80F2174
:103B4000032049F6AC2349F6A8210A901698C0F242
:103B50000001C0F2000300244728D8BF0B46089993
:103B60001393032321F08001159408911093189466
:103B700096E6089C44F008040894137871E50899C7
:103B8000099241F010010891089A169312F020034F
:103B900000F0DF80129BDA1D002322F0070202F101
:103BA00008041294D2E9004554EA05000CBF002233
:103BB000012200208DF80F0132E6089C099244F0A2
:103BC000100408940898169310F0200F00F0048158
:103BD00012990123CA1DE0E7099249F6B821089A13
:103BE000C0F20001169312F0200F179100F020810F
:103BF000129CE31D23F0070303F108001290D3E9A0
:103C0000004554EA0502089B0CBF00220122134222
:103C100000F0698316983023089901228DF80C3141
:103C2000022341F002018DF80D010891C1E70898C7
:103C300040F020000890137813E509920021129AB1
:103C400016938DF80F11141D13681393002B00F0B9
:103C5000FD86002FC0F2A786139800213A4602F095
:103C6000DDFA002800F04A87139BC01A1090B84272
:103C700040F3F584002027EAE77115900A919DF83A
:103C80000F211294109718900AE613786C2B0BBF33
:103C9000089B089C43F0200344F010040ABF0893DB
:103CA000089412F8013FDCE409921693002B3FF4CC
:103CB0004BAD002201218DF8BC302FAC00230A91BE
:103CC00010918DF80F31159218921394ECE59DF830
:103CD0000F31002B40F09B838DF80F511378C0E417
:103CE000089840F0010008901378BAE41693089BF6
:103CF000099213F0200F7FF47EAD089911F0100F98
:103D000000F0A483129A146804321292E5177BE53E
:103D1000089840F0400008901378A2E4169301211F
:103D2000129B0020099200221C1D0A911B6812940C
:103D300010912FA98DF80F011592189213918DF8FB
:103D4000BC30B1E50992089A169312F020037FF473
:103D500021AF089911F0100200F09283129C2268A2
:103D60000434002512941446003A18BF012220E7BB
:103D7000129B7821089C0025099249F6CC201A68EC
:103D800044F0020404330894129314463023003A9A
:103D90008DF80C3118BF0122C0F200008DF80D1112
:103DA00017900223169104E70899099211F0200F49
:103DB00000F05983129A0F9C129811682246E3175B
:103DC00004301290C1E9002307E40898099210F02A
:103DD000200F16937FF4FCAE089911F0100F40F0FD
:103DE0009182089810F0400F00F08C821299012304
:103DF00000250A88043112911446003A18BF0122A6
:103E0000D7E6129B129C1B68201D002B0D93FFF61A
:103E100089AC1378129024E4099249F6CC20089AD0
:103E2000C0F20000169312F0200F17907FF4E0AE5E
:103E3000089911F0100F00F0FA82129A0025146808
:103E400004321292DDE6119839AA0C9903F0B0F809
:103E500000287FF480AC9DF80F2156463B9D77E506
:103E6000089A12F0010F40F0FD803A9C0135139A38
:103E700001230134C9F80430072CC9F800203B9510
:103E80003A9400F3338509F1080B0BF108091D9BE7
:103E90000134072C1D44CBF804303EABCBF8003086
:103EA0003B953A947FF7CDAD119839AA0C9903F060
:103EB0007FF800287FF44FACD1463B9DC1E51699B1
:103EC000652940F3CB801A98002200231B9904F047
:103ED000C5FF002800F03E813A9C49F6E823C0F275
:103EE0000003C9F8003001340123072CC9F804305D
:103EF0001D443A943B95D8BF09F1080900F3478364
:103F0000429B0E9A934204DB089B13F0010F3FF48F
:103F100098AD3A9C1C9801341999072C0544C9F8AE
:103F20000400D8BF09F10803C9F800103B953A9482
:103F300000F3BD830E9A561E002E40F31E83102EF2
:103F400040F301863A9C1027DFF8FC842246DDF816
:103F500030B04446DDF8448003E0103E102E40F3BC
:103F6000C48101321C605F6010350833072A3A9221
:103F700003F108093B95F0DD4046594639AA0AF19C
:103F8000080903F015F8534600287FF4E4AB3B9D85
:103F90003A9AE2E7002B40F0B780089C14F0010F3A
:103FA00000F02B81012030230DF1E30110908DF8FA
:103FB000E33013916AE40D9B0A9C1F1B002F7FF7CF
:103FC000EAAC102F40F388853A9C3346DFF87884BA
:103FD0004FF010092246DDF830B04446DDF8448049
:103FE00002E0103F102F1BDD01321C60C3F804906B
:103FF00010350833072A3A9203F108063B95F0DDA5
:104000004046594639AA0AF1080602F0D1FF534644
:1040100000287FF4A0AB103F3B9D102F3A9AE3DCC1
:10402000A04614460134C3F80080072C5F603D446D
:104030003A943B957FF7AFAC119839AA0C9902F0EE
:10404000B7FF00287FF487AB1599564610983B9D23
:104050000F1A002F3FF7A5ACB146DDE40E990129F8
:104060007FF7FEAE3A9C0135139B0134C9F800304E
:104070000123072CC9F80430D8BF09F108093B9582
:104080003A94D8BF09F1080600F3418101341C9924
:104090001998072C0D44D8BF06F1080BC9F8041075
:1040A000C9F800003A943B9500F33F811A9800222A
:1040B00000231B9904F0D2FE002840F0CE800E9B16
:1040C000013413985A1E7260431C072C3360154448
:1040D0003A943B957FF7D9AE119839AA0C9902F022
:1040E00067FF00287FF437AB0AF10809D3463B9DF0
:1040F0003A9CCCE6119839AA0C9902F059FF002895
:104100003FF4F5ACFFF727BB109239AA1392FFF7E3
:10411000BDBB119839AA0C9902F04AFF00287FF420
:104120001AABD1463B9D77E4119839AA0C9902F05D
:104130003FFF00287FF40FAB3B9D564627E41198C4
:1041400039AA0C9902F034FF00287FF404AB3B9DA0
:1041500056460CE4429E002E40F324820E9E189C8C
:104160001398A642A8BF26460E99002E00EB010B1D
:104170000EDD3A9CAD19C9F800000134C9F804609D
:10418000072C3B953A94D8BF09F1080900F3258420
:10419000189A26EAE676961B002E40F30284102E2B
:1041A00040F3F6843A9C2946DFF89C821027224689
:1041B0000C9D4446DDF8448003E0103E102E40F391
:1041C000718101321031072AC9F80040C9F8047022
:1041D00009F108093A9209F108033B91EDDD4046E7
:1041E000294639AAD14602F0E3FE0AF10803002865
:1041F0007FF4B1AA3B993A9ADFE7109339AB139356
:10420000FFF744BB0DF1BC0B17990BF1270004F02D
:104210000F02230943EA05734FEA151C8A5C1C460A
:104220000346654601381A7054EA0502EFD10BF1D6
:10423000280B1393C3EB0B031093FFF727BB0A2C38
:1042400075F100017FD2303401220DF1E3031092A9
:104250008DF8E3401393FFF719BB0E994F1E002F03
:10426000DCBF06F10809B3467FF711AE102FD8BFA7
:10427000DFF8D4812CDDDFF8D08123462A464FF0C9
:10428000100944460C9DDDF8448002E0103F102FD9
:104290001BDD01333460C6F8049010320836072B5A
:1042A0003A9306F1080B3B92F0DD4046294639AAC5
:1042B0000AF1080B02F07CFE564600287FF44BAA58
:1042C000103F3B9A102F3A9BE3DCA04615461C4654
:1042D0000134C6F80080072C77603D443A943B9542
:1042E0007FF7D3ADF8E6022363E4A0461446013419
:1042F000C3F80080072C5E6035443A943B957FF705
:10430000A0ABD1E5129B129C1A68012328E51198F5
:1043100039AA0C9902F04CFE00287FF41CAA3B9DA0
:104320000AF108063A9CD146B0E6119839AA0C99D0
:1043300002F03EFE00287FF40EAA3B9D0AF1080B16
:104340003A9C5646B2E60DF1BC0BB1460BF127087C
:10435000204629460A22002304F0DAFD464620467C
:104360002946002308F1FF3802F130040A22347094
:1043700004F0CEFD04460D4654EA0500E8D113963C
:104380000BF1280B13994E46C1EB0B011091FFF76F
:104390007DBA302A00F0478313930BF1280B139852
:1043A000C3EB0B04302310940370FFF76FBA644221
:1043B00065EB45052D2354EA05008DF80F310CBF40
:1043C000002201220123FFF72BBA1A981B9902F051
:1043D000A5FC002840F07681159049F6B42349F6F3
:1043E000B0221698C0F20002C0F200034728D8BFDE
:1043F00013461393159B032408990A9421F0800116
:104400009DF80F21089110941893FFF749BA13787B
:10441000FFF727B91299CB1D23F0070303F1080218
:1044200012921C681A945B681B93FFF777BB089B7A
:1044300013F0400F00F02781129800250488043003
:104440001290FFF7DEBB00BF989A0000089B13F0A4
:10445000400F00F011811298B0F900400430129022
:10446000E517FFF7D1B9089911F0100F00F012818C
:10447000129A0F9C1368043212921C60FFF7ADB8B9
:10448000089810F0400300F00F82129B0025129C48
:1044900019880434134612940A1E0C4618BF0122D0
:1044A000FFF787BBA0460D4614460134C9F80080CB
:1044B000072CC9F8046035443A943B9500F3BB825D
:1044C000429A0E9CA2424ADB089810F0010F46D196
:1044D000139C189821180E9CC1EB0B07A21ABA4224
:1044E000B8BF1746002F0ADD3A9CED191960013458
:1044F0005F60072C3B953A9400F38782083327EAE4
:10450000E776961B002E38DD102E40F31C833A9C74
:104510001027DFF8C8862246DDF830B04446DDF8C3
:10452000448003E0103E102E7FF7DFAE01321C60A6
:104530005F6010350833072A3A9203F108093B956A
:10454000F0DD4046594639AA0AF1080902F030FD6B
:10455000534600287FF4FFA83B9D3A9AE2E73A9C35
:104560001C9901341998072C0D44596018603B952B
:104570003A9400F33E820833AAE79946FFF761BAFE
:1045800006F108093A9CDFF85486FFF73BBA119808
:1045900039AA0C9902F00CFD00287FF4DCA83B9DA1
:1045A000D146ADE43A9C49F6E823C0F20003C9F8CD
:1045B000003001340123072CC9F804301D443A941B
:1045C0003B95D8BF09F1080900F39F8136B90E9BCE
:1045D00023B9089C14F0010F3FF433AA3A9C1C98AD
:1045E00001341999072C0544C9F80400C9F80010D2
:1045F000D8BF09F108093B953A9400F3BE81764291
:10460000002E40F3AB81102ED8BFDFF8D08540F3E9
:104610008D81DFF8C88523461027DDF830B0444689
:10462000DDF8448003E0103E102E40F37D8101331D
:104630001035072BC9F80040C9F8047009F10809C2
:104640003A933B95EFDD4046594639AAD14602F0F0
:10465000AFFC00287FF47FA83B9D3A9BE3E7109BCB
:10466000002212940024159223EAE3739DF80F218F
:104670000A931894FFF714B912990C680431129137
:10468000E517FFF7C1B8129900250C6804311291A3
:10469000FFF7B7BA089810F0400F00F01F81129989
:1046A0000F9A0B68043112911A80FEF796BF119889
:1046B00039AA0C9902F07CFC00287FF44CA83B9DA1
:1046C000534637E4B7F1FF3F00F06481169CA4F134
:1046D000670EDEF1000343EB0E03472C08BF43F0E7
:1046E000010313B1002F08BF01271B9B1699002B54
:1046F0000898A1F16604B9BF03F100494FF02D0BF2
:10470000DDF86C904FF0000BD4F1000C4CEB040C76
:1047100040F48070462908BF4CF0010C0890BCF1B1
:10472000000F40F0B781A1F16500434243EB000365
:10473000452908BF43F00103002B00F0EF8107F18A
:10474000010802231A9A42A9CDF82C9000930A92EC
:10475000DDE90A231198029141A9CDF818C003910F
:1047600040A9CDF80480049100F0D0FADDF818C01B
:1047700013901698B0F1670318BF012347280CBFA8
:10478000002303F001032BB9089911F0010F08BFB2
:10479000409B16D0139A02EB0804BCF1000F05D021
:1047A0001378302B00F0DF81429BE4181A98002226
:1047B0000023494604F052FB002800F08181234683
:1047C0004094169C1398A4F167014A42C0EB03037E
:1047D00042EB01020E93472C14BF134642F0010333
:1047E000002B00F05A81429B13F1030F109302DB60
:1047F0009F4280F27881169902391691013B169CEE
:10480000002B42938DF8F840C0F2A4812B228DF842
:10481000F920092B40F3858146F267640DF1F6001B
:10482000C6F2666484FB0321DA170546C2EBA102D7
:1048300002EB8201A3EB410113463031092A00F853
:104840000119EFDC30336A1E05F8013C0DF1F70366
:104850009A4228BF0DF1FA0109D20DF1FA0312F8BC
:10486000011B03F8011B1946079C9442F7D83EAB85
:104870000E98CB1A0E9918181D930129109040F329
:104880007F81109B0024189401331093BBF1000F1B
:1048900040F0F580109B9DF80F2123EAE373CDF8DB
:1048A00054B00A93FEF7FCBF12980025026804304A
:1048B00012901446003A18BF0122FFF77AB940213E
:1048C000119801F0EDF90C9908600861002800F0DA
:1048D0007A810C9840234361FEF76DBE129C0F98BD
:1048E0002368043412941860FEF777BE119839AA31
:1048F0000C9902F05DFB00287EF42DAF3B9D0DF17D
:1049000084093A9CD346FFF7C2BA119839AA0C9988
:1049100002F04EFB00287EF41EAF429ED1463B9D26
:10492000002E7FF45BAE52E6A0461C460134C9F867
:104930000080072CC9F8046035443A943B95D8BFF1
:1049400009F108090ADD119839AA0C9902F030FB27
:1049500000287EF400AF3B9DD1463A9C01340E9B6B
:10496000139A072C1D44C9F80430C9F800203A9462
:104970003B957FF764A8FFF797BA119839AA0C996D
:1049800002F016FB00287EF4E6AE429ED1463B9D27
:104990003A9C34E60627A8E62D228DF80F21FFF772
:1049A000CFB84B468CE5139800211591FEF77EFD9C
:1049B000159B1294189320EAE07210900A929DF8C9
:1049C0000F21FEF76DBF49F6882806F108033B9DCD
:1049D000C0F200083A9CFEF7AEBF119839AA0C99B4
:1049E00002F0E6FA00287EF4B6AE3B9DD146FFF712
:1049F000CFBB119839AA0C9902F0DAFA00287EF49C
:104A0000AAAE429A53463B9D62E5119839AA0C9989
:104A100002F0CEFA00287EF49EAE429A53460E98DB
:104A20003B9D821A6BE5139B0BF1280BC3EB0B0329
:104A30001093FEF72BBF119839AA0C9902F0B8FA1F
:104A400000287EF488AE53463B9D39E5062F28BFEB
:104A5000062749F6E02027EAE771C0F200001A466F
:104A600010970A911294159318931390FEF718BF9C
:104A700049F688283A9CC0F20008FFF71AB8109C43
:104A80002D2200208DF80F2124EAE47415900A9459
:104A9000FEF707BFB846032354E6169A662A60D18C
:104AA000429B002B109340F386801FB9089810F0AA
:104AB000010F02D05A1CD219109218931695E5E6F0
:104AC000409B9C427FF67DAE302203F8012BA3422F
:104AD0004093FAD3234674E633463A9C0836DFF80F
:104AE000FC80FFF79FBA0E9A934222DB089C14F0D9
:104AF000010F34D0581C67251090DEE727EAE772D3
:104B000015900A9212949DF80F2110971890FEF7B5
:104B1000C7BE002747EAE777FEF7A4BDB8460223E1
:104B200010E6303330223FA98DF8FA208DF8FB30A3
:104B30009DE6002B0E99D4BFC3F102020122521848
:104B400067251092B9E703F108093A9CDFF88C80D9
:104B5000FFF7CDBB2D225B428DF8F92059E6672582
:104B6000ABE7429B4AE61A9800220023494604F02C
:104B700075F900287FF418AEC8F10103429313E6DB
:104B8000089A12F0010308BF18933FF47FAE78E64D
:104B900009F108033A9CDFF8448086E4129807681C
:104BA0000430002FBEBF4FF0FF3713781290BFF6CE
:104BB00030A9FEF756BD1FB9089911F0010F0AD0B0
:104BC0000237109779E7119C4FF0FF320C230F92B8
:104BD0002360FEF7C9BD012210926EE7989A00008B
:104BE0002DE9F04F83B0036981460D6901919D4223
:104BF00000F38980EA1C01F1140400F11408013D5E
:104C000092008B1882181F1D59685068013103F0FB
:104C1000C7FB064600283CD0002042462346864675
:104C200053F804CB11681FFA8CFB4FEA1C4C1FFA97
:104C300081FA0BFB060BD6440CFB06F000EB1B4085
:104C40001FFA8BFBCBEB0E0A1FFA80FE000CCEEB9B
:104C5000114E9F420EEB2A4E1FFA8AFC4CEA0E417F
:104C60004FEA2E4E42F8041BDAD22A1D09EB8203CA
:104C7000596871B998450AD259F822203AB9043BCB
:104C800002E053F8042912B9013D9845F9D3C9F857
:104C900010504846019901F025FE00282FDB01360F
:104CA00043464FF0000C54F8040B19681FFA80FAC1
:104CB000000C8AB2C0EB1141CAEB0202A742944435
:104CC00001EB2C421FFA8CFC4CEA02414FEA224CC9
:104CD00043F8041BE7D22A1D09EB8203596871B916
:104CE00098450AD259F822203AB9043B02E053F819
:104CF000042912B9013D9845F9D3C9F8105030463E
:104D000003B0BDE8F08F0020FAE700BF2DE9F04FB7
:104D10009FB0456A0446904699462B9E002D00F0B0
:104D20009D832B6853B16A680125194695409D60A3
:104D30005A6001F097FB636A00221A60B9F100051E
:104D4000C0F2D2800023336000231A46C7F6F07306
:104D5000C7F6F07205EA0303934200F0AE8000222A
:104D6000002340464946CDE90489012604F076F83F
:104D700080B916F0FF0F11D12A9F01232C983B60B8
:104D8000002800F0EB807E4B2C99581E0B601FB062
:104D9000BDE8F08F002616F0FF0FEDD02046DDE9CC
:104DA00004231CA900911DA9019101F0AFFEC5F3D8
:104DB0000A568246002E00F0AC80059FA6F57E764E
:104DC000073E002027F07F431D9F23F470031790B8
:104DD00043F07E5343F4E00305930023DDE904012F
:104DE0000022C3F6F87303F01DFC5FA3D3E9002390
:104DF00003F0CCFD5EA3D3E9002303F015FCCDE95D
:104E00000401304603F05CFD5BA3D3E9002303F00B
:104E1000BDFD02460B46DDE9040103F005FCCDE9CA
:104E2000040104F04DF8002200230546DDE90401E9
:104E300004F01EF840B1284603F042FDDDE90423EA
:104E400004F00CF800B9013D162D00F2628249F61B
:104E500020314246C0F200014B4601EBC501D1E9C9
:104E6000000104F023F8002800F00E83013D00202B
:104E70001690013FBE1B00F1028300270E96129789
:104E8000002DC0F2F4820E984FF0000B15954019DA
:104E90000E90289B092B75D8052B40F39B86002785
:104EA000043B28932898831E032B00F21384DFE829
:104EB00013F00B04FA03DB030E042A9842F20F737B
:104EC000036049F6F820C0F20000B8F1000F11D0DD
:104ED0002C9900293FF45BAFC278C31C0AB100F1E2
:104EE00008032C9A136052E725F000450123A946D8
:104EF000336029E749F6EC2249F6F823C5F313009D
:104F0000C0F20002C0F2000300280CBF1046184691
:104F1000DEE71D9F1C9BFB1803F586639E1C202E5D
:104F2000DCBFC6F1200008FA00F007DDC6F1400042
:104F30001E3B854028FA03F345EA0300012117913F
:104F400003F0AEFCA6F58666033E0B460246CDE9AD
:104F50000423059BA3F1F87305933EE749F6E82087
:104F6000C0F2000013E700BF61436F63A787D23F21
:104F7000B3C8608B288AC63FFB799F501344D33F48
:104F8000E99A000000204FF0FF31074601222890E7
:104F9000139114920D912990666A00237360204644
:104FA000716801F02BFA636A30601B680F93002F61
:104FB00000F0EB80002D40464946CDE90A89CDE955
:104FC000040140F3318449F6203305F00F02C0F2AA
:104FD00000032E1103EBC20316F0100F08BF4FF0B1
:104FE0000208D3E90001CDE9100140F05082BEB1C2
:104FF00049F6E837DDE91023C0F2000716F0010F8B
:105000001046194607D0D7E9002308F1010803F03C
:10501000BDFC02460B4608377610EFD1CDE91023D0
:10502000DDE90A01DDE9102303F0DAFDCDE90A012B
:10503000169900293DD00023DDE90A010022C3F6BC
:10504000F073012603F014FF002800F00B830D9A83
:10505000002AD4BF002606F0010656B3139B002B8E
:1050600040F38F8000230022C4F22403DDE90A010B
:1050700003F08CFC6F1E1997CDE90A0108F10100BD
:1050800003F01EFC02460B46DDE90A0103F07EFC3C
:1050900000230022C4F21C0303F0C6FADDF84C9092
:1050A0000B460246CDE91023119BA3F150731193D7
:1050B0003CE2404603F004FCDDE90A2303F066FC11
:1050C00000230022C4F21C0303F0AEFA02460B4692
:1050D000CDE91023119B0D98A3F15076119600286D
:1050E00040F0218200230022C4F21403DDE90A010A
:1050F00003F098FA109F33463A468046894603F0FB
:10510000D5FE002840F00A821098494606F1004377
:105110000246404603F0ACFE002832D0DDF834B041
:10512000CDF828B0299A00270F9ED543204659462E
:1051300001F098F90A9A72B13B1E18BF01239742F9
:105140000CBF002303F00103002B40F056832046E0
:105150000A9901F087F92046514601F083F90023AE
:10516000337001352A9B2C9F1D60002F00F01384A3
:105170003E600F980BE6DDF868B01B9DDDF860A07F
:105180000A9CDDE90423904699461C9BDF43FF0FF0
:105190000E2DCCBF002707F00107002F00F0BC80C8
:1051A000299849F62033C0F200030D9903EBC5039B
:1051B000C70F0029CCBF002707F00107D3E9000182
:1051C000CDE90601002F40F0968102460B4640468D
:1051D000494603F005FD0F9E03F072FE834603F07F
:1051E0006FFBDDE9062303F0D1FB02460B46404688
:1051F000494603F017FA0BF13003CDE9040106F834
:10520000013B0D9A012A53D000230022C4F224034B
:105210004FF0010803F0BAFB00220023CDE904019E
:1052200003F01CFE00B1B84618F0FF0F93D0DDF874
:1052300034903746CDF834A04FF001080995A246C6
:105240000DE003F0A3FB00220023CDE9040103F0ED
:1052500005FE00B1002414F0FF0F00F00D84DDE91D
:10526000062308F10108DDE90401012403F0B8FC7C
:1052700003F026FE834603F023FBDDE906230BF152
:10528000300503F083FB02460B46DDE9040103F021
:10529000C9F900230022C145C4F22403CDE9040169
:1052A00007F8015B3E46CCD15446099DDDF834A099
:1052B000DDE9040102460B4603F0B6F98046894653
:1052C0004246DDE906014B4603F0D2FD60B9DDE957
:1052D000060142464B4603F0C1FD00283FF43BAFB8
:1052E0001BF0010F3FF437AF19950F98334613F8B1
:1052F000011C5A1E1E461346392940F0DF8398428E
:10530000F5D10F983023199F03707D1C3123137042
:1053100021E701211691ACE51499002940F0C880DD
:10532000149B5F46129E0A93002E0E98D4BF002352
:1053300001230028D4BF002303F001034BB103462F
:105340001299B342A8BF3346F61AC91AC01A12916D
:105350000E90BBF1000F1CDD149A002A00F092831E
:10536000002F12DD0A993A46204601F013FA524600
:105370000A9020460A9901F079F9514603462046E1
:10538000039301F06FF8039B9A46BBEB070240F0D2
:1053900080830121204601F05FF9159B002B834695
:1053A00005DD594620461A4601F0F4F98346289F48
:1053B000012F40F398810027159A002A40F0EE82D1
:1053C00001230E981B1813F01F0300F01B82C3F17A
:1053D0002003042B40F3F283043B1299F618C01803
:1053E000C9180E9012911299002905DD51462046E8
:1053F000129A01F021FA82460E9A002A04DD5946DB
:10540000204601F019FA8346169B002B40F0D0820B
:1054100028980D990228D4BF002301230029CCBF6E
:10542000002303F00103002B00F0778100297FF4B3
:1054300079AE594605220D9B204601F02FF8834690
:105440005046594601F04EFA00287FF76BAE0F9E8A
:1054500031230135002706F8013B67E6102000F0F4
:105460000FFC6062456085600560C56066E4129966
:105470000022C5F1000B1592491B129109E57642F5
:10548000002312960E93FBE400221692F1E449F6F3
:10549000E8334046C0F20003494606F00F064FF0DD
:1054A0000308D3E9082303F09BFBCDE90A019EE53D
:1054B000289A012A40F3F3820D980D9A431E9B45CA
:1054C000B7BFCBEB0303C3EB0B0715999B44BCBFE2
:1054D000C9181591002AC0F2FB82129E0D9B129AE8
:1054E00020460121D21812920E9AD2180E9201F083
:1054F000B3F80A9018E70D9B002B40F0D9820023E7
:105500000022C4F21403DDE9060103F03FFA42462B
:105510004B4603F0C1FC00287FF400AEDDF834B048
:10552000CDF828B093E7DDF8349019951499002947
:1055300000F0AD8149F620330021C0F200030020C5
:1055400003EBC903C3F6E0710F9E53E9022303F096
:1055500047FBDDE9102303F065F8CDE91001DDE933
:105560000A0103F0ADFC074603F0AAF902460B4618
:10557000DDE90A0103F056F807F13003CDE90A012D
:10558000DDE9100106F8013BDDE90A2303F08EFC9A
:10559000002840F0FD810021DDE90A230020C3F648
:1055A000F07103F03FF802460B46DDE9100103F00D
:1055B0007DFC00287FF499AEB9F1010F7FF7E1ADD2
:1055C000CDF868B037461B954FF00108CDF860A0C4
:1055D000DDE90AAB0A94DDE910450FE00021002067
:1055E000C3F6F07103F01EF822462B4603F040FC90
:1055F000002840F06982C845BFF6BDAD00230022F7
:10560000C4F224032046294608F1010803F0BEF93C
:1056100000230022C4F2240304460D465046594696
:1056200003F0B4F98B46824603F04AFC064603F0C9
:1056300047F9303602460B465046594602F0F2FF13
:1056400022462B4607F8016B3E4682468B4603F006
:105650000FFC52465B460028C0D0DDF860A00A9CD3
:10566000199D78E50026F2E4012314932999002975
:10567000C2BF084613910D9040F3B081666A0022C4
:105680001728726040F29E8204235B00013203F10E
:1056900014018142F9D90D9B72600E2B8CBF00273B
:1056A00007F001077BE4002314932998281813902E
:1056B00001300028C8BF0D90E0DC0E288CBF002709
:1056C00007F001070D9067E400201490CEE7012257
:1056D0001492EAE74FF0FF33002701201393149050
:1056E0000D93299758E4B8F1000F7FF464AEC9F325
:1056F00013034746002B7FF45FAEC7F6F07309EA49
:1057000003031F46002B3FF457AE129801270E9952
:105710000130129001310E914EE6149B002B00F0E7
:105720006381002E05DD20460A99324601F084F897
:105730000A90002F40F0F0810A9804900F9E08F024
:1057400001010A9F0E910A9559465046FFF748FA03
:1057500039464FF0010930300990504601F0C2F847
:105760005946049A0546204601F0DAF8C368804697
:10577000002B3CD02046414600F074FE289A59EA9E
:10578000020203D10E9B002B00F0F881002DC0F225
:10579000A381289B2B4303D10E98002800F09C8105
:1057A000B9F1000F00F3D781099A06F8012BB04632
:1057B0000F980D99331A8B4200F0C9810A22514685
:1057C0000023204600F06AFE049A9742824622D0C7
:1057D00039460A220023204600F060FE04990A227E
:1057E00000230746204600F059FE0490ACE75046DF
:1057F000414601F077F88146BCE72046394600F083
:1058000031FEA4E41C23129AF6180E98D2181292B4
:10581000C0180E90E7E5394620460A22002300F022
:105820003DFE074604908FE76E42002E00F0208177
:1058300006F00F0349F62032C0F20002DDE90A014A
:1058400002EBC303D3E9002303F0A0F83611CDE93E
:105850000A0100F00D8149F6E8374FF00208C0F266
:10586000000702460B4616F0010F1046194607D0F6
:10587000D7E9002308F1010803F088F802460B4637
:1058800008377610EFD1CDE90A23FFF7D1BB09F134
:10589000FF321892189F49F62031C0F20001DDE96D
:1058A00010230F9E01EBC701D1E9000103F06EF850
:1058B000CDE91001DDE90A0103F002FB074602F021
:1058C000FFFF0B460246DDE90A0102F0ABFEB9F12B
:1058D000010F07F13003CDE90A0106F8013B2ED094
:1058E0000F98CDF868B0D346431E07469944DDE9CA
:1058F0000A011B95B2464D46264600230022C4F2FB
:10590000240303F043F88946804603F0D9FA04469D
:1059100002F0D6FF303402460B464046494602F0BC
:1059200081FE07F8014FAF42E7D1CDE90A013446C5
:10593000189956461B9DDA46DDF868B076180023A4
:105940000022C3F6E073DDE9100102F06DFE0246AD
:105950000B46DDE90A0103F0A9FA00287FF4C5AC83
:105960000021DDE910230020C3F6E07102F05AFEA9
:1059700002460B46DDE90A0103F07AFA00283FF4FB
:1059800000AC33461E46013B16F8012C302AF9D0F4
:10599000199DFFF7E0BB0F98FFF7F9B9DBF810305E
:1059A0000BEB8303186900F005FEC0F1200308E546
:1059B0005046594600F096FF0028BFF629AD5146E3
:1059C00020460A22002300F069FD013D824614981A
:1059D000002840F0E980139A0D9219E501221392F4
:1059E0000D922992FFF7D8BA0F9E0127DDF8349067
:1059F000049502E000F052FD824659465046FFF7FA
:105A0000EFF80A2200234F45514607F1010700F144
:105A10003005204606F8015BB046EBDB0995002710
:105A2000049D51460122204600F006FF5946824659
:105A300000F058FF00280FDD0F9A464608F1FF38A6
:105A400016F8013C392B62D14245F6D10F9931232A
:105A500001350B70FFF76ABB03D1099810F0010FF5
:105A6000EAD1464618F8013D302BFAD0FFF75EBB6D
:105A70004FF00208FFF7DCBA5446099DDDF834A068
:105A8000FFF769BB514620465A4600F083FE824626
:105A90007FE45146204600F07DFE824679E4179F60
:105AA000002F4ED003F586635F460333129E16E542
:105AB0004FF0000BCDF828B0FFF734BB4B1C199DFD
:105AC000DBB21370FFF747BBDDF860A00A9C0CE463
:105AD000129B9E1A002302E5B9F1000F0A9D0FDD0B
